:020000040800F2
:1000000000800120E93A0208353B0208353B02082E
:10001000353B0208353B0208353B02080000000072
:10002000000000000000000000000000353B020856
:10003000353B02080000000041420008353B020841
:1000400031410008353B0208353B0208353B0208C8
:10005000353B0208353B0208353B0208353B0208B8
:10006000353B0208353B0208353B0208353B0208A8
:10007000353B0208353B0208353B0208353B020898
:10008000353B0208353B0208353B0208353B020888
:10009000353B0208353B0208353B0208353B020878
:1000A000353B0208353B0208353B0208353B020868
:1000B000618B0108353B0208353B0208353B0208DD
:1000C000353B0208353B0208353B0208353B020848
:1000D000353B0208353B0208353B0208353B020838
:1000E000353B0208353B0208353B0208353B020828
:1000F000353B020845440008353B0208353B020801
:10010000353B0208353B0208F18A0108353B0208FD
:10011000353B0208353B0208710B0008A547000873
:10012000353B0208353B0208353B0208353B0208E7
:10013000353B0208353B0208353B0208353B0208D7
:10014000353B0208353B0208353B0208353B0208C7
:10015000353B0208353B0208353B0208353B0208B7
:10016000353B0208353B0208353B0208353B0208A7
:10017000353B0208353B0208353B02080000000011
:10018000353B0208353B02080348044B834202D04A
:10019000034B03B118477047C0030020C003002081
:1001A00000000000054806490B1AD90F01EBA30116
:1001B000491002D0034B03B118477047C003002019
:1001C000C00300200000000010B5064C237843B99E
:1001D000FFF7DAFF044B13B10448AFF300800123AB
:1001E000237010BDC003002000000000D4AC030841
:1001F00008B5044B1BB104490448AFF30080BDE8C7
:100200000840CFE700000000C4030020D4AC03087E
:10021000004870470C4F030800487047D845030852
:1002200070B52DED028B8348834D88B000F0AAFE97
:100230000021804800F0D6FE804800F0A3FE002197
:100240007E4800F0CFFEBC2024F05AFC044603F0A8
:100250006DF97B4B60681A6803687A499B68A5FB57
:100260000252920C984704AD002302A861680295DF
:1002700003938DF810301BF099F80298A84201D032
:1002800003F03EFC6068704D036870499B689847B6
:10029000A421286803F012FB019016F0B1F801992F
:1002A000204603F023F80821286803F007FB01909B
:1002B00019F03AFB0199204603F018F81421286838
:1002C00003F0FCFA019017F083FE0199204603F039
:1002D0000DF81021286803F0F1FA019018F01AF8CF
:1002E0000199204603F002F8012024F009FC06469B
:1002F00012F0E0FD16B1304603F002FC012024F0BC
:10030000FFFB06460CF062FB16B1304603F0F8FB2B
:10031000012024F0F5FB064611F040F816B13046F6
:1003200003F0EEFB4421286803F0C8FA019012F0B4
:10033000F5FF0199204602F0D9FF4FF4C761286804
:1003400003F0BCFA019018F01FFC0199204602F05E
:10035000CDFF1821286803F0B1FA019011F0CCF814
:100360000199204602F0C2FF282024F0C9FB002199
:10037000054619F057FF2946204602F0B7FF002333
:100380001A464DF2BD11606902F048F9B2EE040A56
:1003900002F030FB02F040FBDFED2D7AB4EEE70A0D
:1003A000F1EE10FAB0EE408A1FDC6068294903685C
:1003B0009B689847606902F0E7F894F8B830DB076B
:1003C00033D4254C2368DA68986992F89C110BF0B5
:1003D000AFFD2368986A03F03DFF2368586A00F078
:1003E0005FFB08B0BDEC028B70BD042024F088FBDD
:1003F000DFED1A7A68EE277A0022FCEEE77A0546EE
:1004000017EE901A03F0C8FE2946204602F06EFF50
:1004100018EE100A25F066FA6568024628680B4651
:1004200086680F492846B047C4E70121014800F01B
:10043000D9FDC6E7DC03002083DE1B43DE0300207A
:10044000D0010020F0450308140400200C460308E6
:10045000CDCCCC3D484603081C0400200024744940
:100460002446030870B5FFF7DBFE0D4D0D4E00244A
:10047000286890F8B830DB0707D5631CC4F3003157
:1004800030469CB200F0AEFD28680022114602F012
:1004900031FF28680022032102F02CFFE8E700BFAB
:1004A0001C040020DC03002010B5054C4C21204624
:1004B00000F05CFDA01C4D21BDE8104000F056BDD1
:1004C000DC030020064B4179027953F821005100EA
:1004D000C36803228A4023EA0203C360704700BF57
:1004E0006C46030810B4094B4179027953F8214056
:1004F0005200E36803209040012123EA000301FA3F
:1005000002F21343E3605DF8044B70476C46030846
:1005100010B4094B4179027953F821405200E36845
:1005200003209040022123EA000301FA02F2134360
:10053000E3605DF8044B70476C4603088279102134
:10054000017122F00302002182710160704700BF37
:1005500070B50D460446474982B0284625F00BF891
:10056000A37928B960F34103A371204602B070BD9E
:100570002D6843F00203A3712846002301A90A2233
:1005800001932CF03BFB019BC0B2AB42607101D9DF
:1005900008280AD9A379384A226023F003031022DD
:1005A0002046A371A28002B070BD22F0A3F9334EA1
:1005B0006279019D56F8222022602A782E2AE9D1FC
:1005C000013501A928460A2201952CF017FB019B51
:1005D000C0B29D422071DDD20F28DBD818780028E8
:1005E000C3D0012509E02D2825D0402814D11A4672
:1005F0000133019350780028B7D05E2813D0F2D988
:100600006F2826D076281ED1A2799107EFD52046F3
:10061000FFF77EFF019BEAE7212814D1A27942F07F
:100620000102A271E3E7A2799007E0D52046FFF727
:1006300059FF019BDBE7A2799207D8D52046FFF747
:1006400041FF019BD3E700F0A9FF00288DD0019B5B
:10065000CDE7A2799207CAD56279237956F822208C
:10066000516805FA03F30B4353602046FFF72AFF56
:10067000019BBCE768460308000002406C46030883
:1006800010B50179407921F0EDFC0949044623F0C9
:10069000D3F9013008D0142024F032FA2146044660
:1006A00022F02EF8204610BD0024204610BD00BFC9
:1006B000389B030870B5054682B011B3541A0F2C4D
:1006C0000E4601940BD8012C006822D10B780370E0
:1006D000019C28686C600023035502B070BD0022A5
:1006E00001A924F0B7FC019B2860AB60224631468B
:1006F00028F0E6FC019C28686C600023035502B0DA
:1007000070BD4AB90068144600236C60035502B0FE
:1007100070BD002CDED0E9E7014824F0CFFB00BF1C
:1007200090460308F0B55D498FB0022300220446CD
:1007300024F009FF451C7BD023681B5C232B054656
:1007400076D0564902460223204624F0CEFE411CB4
:10075000074600F08B80024650490223204624F0D1
:10076000F2FE421C2168064674D00B5C232B71D02C
:1007700062689542A7EB050700F284802944521B6A
:10078000BA4294BF8A18CA194FF0000302A804AFF6
:100790000297FFF78FFF02A9684601F0DDFA2820D3
:1007A00024F0AEF9054602F0C5F8009ABDF8043011
:1007B0002A62012185F82610AB8472180523384976
:1007C000204624F092FE431C00D0801B62689642B3
:1007D0005ED82168921B3144824294BF8A180A185D
:1007E0000AAC4FF0000308A80894FFF763FF089BCA
:1007F0002868A34220D005F1080209999042C5E972
:1008000000310A9A2DD0AB68AA6058B308900A93B9
:100810000023099303700898A04201D003F070F9F7
:100820000298B84201D003F06BF928460FB0F0BD32
:10083000002528460FB0F0BD099A32B1012A1BD01D
:10084000214628F03DFC099A28686A6000238354F9
:100850000898DDE713482AF011F9002528460FB063
:10086000F0BDAA6008940AAC2046D1E721680E4882
:100870002AF004F90025D8E79DF828300370099A7A
:100880002868E2E71346094909482A4624F01FFB75
:10089000134606490648324624F019FBBC460308B5
:1008A000544703085C470308C0460308044703088D
:1008B0001C47030838B50B681B78232B0ED04B68F8
:1008C000022B08460AD91546FFF72CFF044618B13B
:1008D0002846214600F072FA204638BD0024204602
:1008E00038BD00BF70B51546194A00F10801016016
:1008F0001E4611464FF000030446FFF7DBFE2A6850
:100900001278232A15D06B68022B12D92846FFF7DC
:1009100009FF054668B1028C33889A420BD02B46FA
:1009200053F8080B984201D003F0EAF8284603F088
:10093000E7F8204670BD428C73889A42EFD1B388A5
:10094000828C9A42EBD10146204624F013FCE6E764
:100950000C4F0308704700BF704700BF704700BFCF
:10096000704700BF704700BF704700BF704700BFAF
:10097000704700BF032103F029BB00BF10B5044638
:100980004068054B236008B103F0BAF8204603F035
:100990000FFB204610BD00BF9047030838B5104D2F
:1009A0002B6893F8B830DB07044608D50D4B0E488A
:1009B00019884A1CC1F300311A8000F013FB72B68B
:1009C000636A0BB962B638BD636A013B636262B6A3
:1009D000002228680421BDE8384002F08BBC00BF2B
:1009E0001C040020E0030020DE03002010B50446B4
:1009F0004068064B236008B103F082F8204603F0FC
:100A0000D7FA204603F07CF8204610BD9047030833
:100A1000F0B583B0044603F0D3FA194B194E002504
:100A2000C4E90035C4E9025504F11800FFF786FD5A
:100A3000154B164A019514601A6C1549154842F079
:100A400010021A641A6C144B02F010020192042274
:100A5000019F0A6032688068104EC0F81861920BDE
:100A6000A3FB02039B08052641F6FF70C4E904635B
:100A700088622046CB622262656203B0F0BD00BF8F
:100A800090470308D001002000380240E403002012
:100A90000010004000ED00E0CDCCCCCC710B000884
:100AA000054B064A01204FF48001D86051601A6856
:100AB00002431A60704700BF0010004000E100E0F0
:100AC000074B084A1B6810B49B0B41F6FF74B3FB3D
:100AD000F1F141619462D1625DF8044B03627047A9
:100AE000D001002000100040F8B5D0E90146B44222
:100AF0004169054602D112E0A64210D054F8042BF9
:100B000053695B1A002B5361F6DA106917680344C6
:100B1000536157B10020B847A6426969EED12B6AEC
:100B2000591A002929620EDBF8BD50680028E3D06D
:100B3000D2E9023283B100EB6200D20710D4002167
:100B400098476969D8E7094A6B6A1268013301EB73
:100B5000923129626B62F8BDD707CDD500EB6200F8
:100B600002680021D35898476969C5E7D001002081
:100B7000034A044B6FF0010118681161FFF7B4BF1D
:100B800000100040E403002001207047002070475F
:100B90000120704738B540680D460A4927F0C8FC67
:100BA000044668B128462AF0CBFD234602460121BF
:100BB000284628F033F9034620461C4627F05CF906
:100BC000204638BDC047030810B50446406821F0F0
:100BD00043FA204610BD00BF10B50446406821F01E
:100BE0003BFA204602F08CFF204610BD0022C0E9EF
:100BF00000228260704700BFF8B5D0E90056B542C8
:100C000007460FD055F8044B234644B153F8080B60
:100C1000984201D002F074FF204602F071FFAE420C
:100C2000F0D13E680023C7E90033BB6026B13046EF
:100C3000BDE8F84002F064BFF8BD00BF10B504463F
:100C4000FFF7DAFF206808B102F05AFF204610BD16
:100C5000436810B553F8044D43605CB1234653F824
:100C6000080B984201D002F04BFF2046BDE810402F
:100C700002F046BF10BD00BFF8B5D0E90047BC4246
:100C80000FD00E4601E0A7420BD054F8045B0622B9
:100C900005F12001304628F0E3F90028F3D1284679
:100CA000F8BD00252846F8BD2DE9F047D0E90058E9
:100CB00045458CB027D0DFF854900F46012655F8F3
:100CC000044BD7F800A0A269238C0892E0690B932B
:100CD00024F008FECDE9060194F82720049294F848
:100CE0002620039222680292A28C0192628C0092CA
:100CF0000B9BDAF80840324649463846A047A845DB
:100D000006F10106DBD10CB0BDE8F087E847030827
:100D10002DE9F84FD0E900976FF06048A7EB090381
:100D2000B8EBA30F3DD093469A1005468A469AB376
:100D3000B2EB420F4FEA4203A1EB090428D9DFF8D6
:100D40007880404623F0DCFE06468044DBF8003025
:100D50003351002C04DD22464946304628F04AFA39
:100D6000A7EB0A070434002F344404DD51463A4609
:100D7000204628F03FFA3C44B9F1000F02D0484623
:100D800002F0BEFEC5E90064C5F80880BDE8F88F32
:100D900053B998461E46D9E7A1EB09044FF0040861
:100DA000CFE7044824F08DF8984528BF98464FEACD
:100DB0008808C6E744480308FCFFFF7F2DE9F0439D
:100DC000D0E9003683B0B3420746019125D088466A
:100DD00001F1200901E09E421FD01C68062204F1A7
:100DE000200148461D4628F03BF92B1D0028F2D172
:100DF0005CB1234653F8080B984201D002F080FE04
:100E0000204602F07DFEDDF80480C5F800800B4826
:100E100029F042FF03B0BDE8F083BB689E4206D0D4
:100E2000019B46F8043B7E6003B0BDE8F083314689
:100E3000384601AAFFF76CFFF6E700BF60480308D9
:100E40002DE9F84FD0E900896FF04045A9EB080380
:100E5000B5EB630F37D093465A1006460F46A1EB09
:100E6000080472B39A4228D91B4D284623F048FE45
:100E700082460544BBF800302AF80430002C04DD1B
:100E800022464146504628F0B5F9A9EB070902343D
:100E9000B9F1000F544404DD39464A46204628F093
:100EA000A9F94C44B8F1000F02D0404602F028FEE8
:100EB000C6E900A4B560BDE8F88F3BB91D469A4667
:100EC000D8E70225D1E7054823F0FBFFAB4228BF56
:100ED0002B465D00C9E700BFFEFFFF7F44480308C3
:100EE0002DE9F043D0E90048444583B017D0894646
:100EF000174601E0A04512D054F8045BAE8CBE4208
:100F0000F8D12E8C4E45F5D1D3E9011081420A4625
:100F100008D0698C22F8021BA0455A60ECD103B0BE
:100F2000BDE8F083184605F122020193FFF788FF20
:100F3000019BDFE710B50446007821F0DBFC217847
:100F4000094B627853F8213001205968904021EA1A
:100F500000015960D9685200032000FA02F221EA28
:100F60000202DA6010BD00BF8848030810B5C1F363
:100F7000031301F00F01044603704170FFF7DAFF1D
:100F8000204610BD10B4094B0178427853F8214037
:100F90005200236803209040012123EA000301FA54
:100FA00002F2134323605DF8044B7047884803083E
:100FB00070B40B4B0278467853F822000324036880
:100FC00072009440012523EA040305FA02F2134358
:100FD000036009B94FF48035B540856170BC704736
:100FE000884803080278084B407853F8222021B142
:100FF000012383409361084670474FF48033834058
:1010000093610846704700BF88480308704700BFD7
:10101000704700BF10B5034B0360044602F0C8FFE1
:10102000204610BDB448030810B5054B03600446C4
:1010300002F0BEFF204602F063FD204610BD00BF57
:10104000B448030810B5044602F0BAFF201DFFF7AC
:1010500075FA064B2360FF2100234FF0FF32C4E9ED
:10106000031223766361204610BD00BFB448030815
:10107000002905DBC3689942A8BF19460161704782
:1010800000210161704700BF026981F308018A42B3
:10109000A8BF0A4622EAE272C0E90312704700BF05
:1010A000C0687047837A4FF0FF3202619A070DD50E
:1010B00003F001038B424268017A03D001238B4085
:1010C000936170474FF480338B409361704700BF4A
:1010D0000269FF2A0346084635D842B3FF2A3AD0B0
:1010E0005969B1F5007F30B4A8BF4FF400716FF0BB
:1010F000FF041D7EA142B8BF21462DB3C2F5807406
:10110000091B0029D8BF00255961D8BF1D769A7ADE
:1011100091070AD502F00102197AAA425A6814BF4F
:1011200001234FF480338B40936130BC70479A7A2F
:10113000910708D512F0010F197A5A6813D00123CC
:101140008B409361704770470A447F2A5A61DEDD05
:1011500001251D76DBE79A7A9107F4D512F0010F8D
:10116000197A5A68EBD04FF480338B409361704703
:10117000704700BF10B5044602F0C2FC204610BD07
:10118000F0B587B0114F9DF81450ADF80A101C4609
:10119000034616463868ADF8083025F003050C4BB9
:1011A000019301AA05210494ADF80C608DF8145048
:1011B00002F0A0F89DF8143013F0010003D09B0753
:1011C00044BF049B236007B0F0BD00BF1C04002097
:1011D000EC480308F0B587B00F4F9DF81440ADF808
:1011E0000A10054624F003043868ADF80850164686
:1011F0000A4DADF80C6044F0020401AA06210493E4
:101200008DF81440019502F075F89DF8140000F077
:10121000010007B0F0BD00BF1C040020EC4803082B
:1012200038B5094D094B036004460246072128687A
:1012300002F0C2F828682246082102F0BDF82046D4
:1012400002F0B6FE204638BD1C040020FC4803080E
:1012500010B50446FFF7E4FF204602F051FC20469B
:1012600010BD00BF01B17047837E9A0708D5DB0728
:10127000017E426954BF01234FF480338B40936158
:1012800090F839306FF3410380F83930704700BF70
:10129000012918D039B1CB0714D490F83820022393
:1012A000934019420ED0837E9A070BD5DB07017E4F
:1012B000426903D401238B40936170474FF480331C
:1012C0008B4093617047837E9A07FBD5DA0704D57C
:1012D000027E4369914099617047017E42694FF4F3
:1012E00080338B4093617047F8B504461D460F4626
:1012F000164602F065FE234697E80300334A43F89A
:10130000042B83E8030096E8030004F10C0383E850
:101310000300AA7995E8030004F11403970783E812
:1013200003004ED40022E26294F83930226362F363
:10133000410384F8393094F83930A27E2449254895
:10134000616223F01C03002543F004034FF07E513B
:10135000960784F839306563A062216209D512F0DE
:10136000010F217E62690CBF01234FF480338B4053
:101370009361A37A9D0708D5D807217A62684CBF8C
:1013800001234FF480338B409361A37C9A0708D5E7
:10139000DB07217CE2684CBF01234FF480338B4094
:1013A000936194F839306FF3000384F839302046A4
:1013B000072102F00BFE2046082102F007FE20461E
:1013C000F8BD2979687902F009FEABE7FC4803080B
:1013D000000048420000C07F90ED0D7A10B5F0EE9D
:1013E000407AC0ED087A20EE070A044625F042F85C
:1013F0002063E06210BD00BF90ED087A10B5F0EEFA
:10140000407AC0ED0D7A20EE070A044625F032F846
:101410002063E06210BD00BF0163C16280ED0D0A70
:10142000704700BF036B80ED0D0A194401637047DC
:10143000D0ED087A10B520EE270A044625F01AF8F8
:10144000236BC01A10BD00BF38B5837E04469807D1
:101450000D4609D56169207E0A69C24003F0010387
:1014600002F00102934240D194F8393003F00103B5
:10147000AB4216D094F83930A27C65F30003910793
:1014800084F839300AD502F00102AA42217CE268D0
:1014900014BF01234FF480338B409361012022F06D
:1014A0006DFAA37A9A0708D5D807217A626854BFE3
:1014B00001234FF480338B409361032022F05EFAC6
:1014C000A37A9A0708D5DB07217A62684CBF01230B
:1014D0004FF480338B409361E36A002D14BF4FF0CB
:1014E000FF3201221344E36238BD23B1012303FA22
:1014F00000F08861B8E74FF4803303FA00F08861A8
:10150000B2E700BF70B4056815F8014BDCB10021EB
:101510000E4E08462044A6FB0023DB09C3EB032341
:10152000C31A1944A6FB0120C209C2EB022015F818
:10153000014B0A1A91B298B2002CEBD143EA022077
:1015400080B270BC7047204670BC7047818080803C
:1015500070B410F8015BDDB100210F4E0C4662192A
:10156000A6FB0243DB09C3EB0323D31A1944A6FBF2
:101570000142D209C2EB022210F8015B8A1A91B231
:101580009CB2002DEBD143EA022080B270BC7047C0
:10159000284670BC704700BF8180808020281DBF16
:1015A0000938B0FA80F0400901207047002300F1AB
:1015B000080270B5026003724360D1E90046264418
:1015C000A64282B005460DD014F8010B2BF0DCFBCF
:1015D000C0B20090696801230022284623F05EFE15
:1015E000A642F1D1284602B070BD00BF002070476E
:1015F000BFF34F8F0549064BCA6802F4E0621343FC
:10160000CB60BFF34F8F00BFFDE700BF00ED00E0F0
:101610000400FA052DE9F043D1E90058454583B0AF
:1016200024D0164622B3DFF84C9007460835002335
:1016300001E09E4216D915F8082CFA5455F8040C0E
:101640005C1C24F04FF93B19321BCDE90001114617
:1016500018464A4629F052FDA84500EB040305F15F
:101660000805E6D1184603B0BDE8F0830020FAE78C
:101670001046F8E72C49030870B5054620F018FF1E
:10168000074E044602E0306801F034FE20F010FFFF
:10169000031BAB424FF000024FF00301F3D370BDC8
:1016A0001C0400204FF47A7303FB00F0FFF7E4BF43
:1016B0002DE9F84FD0E900976FF06048A7EB0903D8
:1016C000B8EBA30F3ED093469A1005468A46A2B3C4
:1016D000B2EB420F4FEA4203A1EB090429D9DFF82C
:1016E0007C80404623F00CFA064680443319DBF830
:1016F00000201A60002C04DD22464946304627F0BF
:1017000079FDA7EB0A070434002F344404DD514669
:101710003A46204627F06EFD3C44B9F1000F02D056
:10172000484602F0EDF9C5E90064C5F80880BDE857
:10173000F88F53B998461E46D8E7A1EB09044FF03D
:101740000408CEE7044823F0BCFB984528BF984620
:101750004FEA8808C5E700BF44480308FCFFFF7F45
:101760002DE9F84FD0E900976FF06048A7EB090327
:10177000B8EBA30F3DD093469A1005468A469AB31C
:10178000B2EB420F4FEA4203A1EB090428D9DFF87C
:101790007880404623F0B4F906468044DBF80030F8
:1017A0003351002C04DD22464946304627F022FD05
:1017B000A7EB0A070434002F344404DD51463A46AF
:1017C000204627F017FD3C44B9F1000F02D04846EF
:1017D00002F096F9C5E90064C5F80880BDE8F88F05
:1017E00053B998461E46D9E7A1EB09044FF0040807
:1017F000CFE7044823F065FB984528BF98464FEA99
:101800008808C6E744480308FCFFFF7F2DE9F04F36
:10181000D0E900966F4B704D8246A6EB0900C010D0
:1018200003FB00F3AB4283B000F0CA800C46904645
:10183000002B00F0B280B3EB430F4FEA4302A1EB61
:10184000090B4ED9654D284623F05AF9431907462E
:10185000019300F1180507EB0B0202F10801434662
:1018600047F80B1053F8080B984200F09A80D8F80C
:10187000081047F80B009160D8F80410C8F8003041
:101880004C454FF000035160C8F8043088F8083028
:101890003CD007F1080309F1080148460EE043F87F
:1018A000082C0A681A60183051F8042C43F8042CEC
:1018B000844201F1180103F1180318D043F8083CE1
:1018C00051F8082C8A42EAD1D1F800C04D688A68E4
:1018D000D1F80CE0C3F80CE0C3F800C05D609A607A
:1018E000E1E7002A6FD1019217461825B3E7A4F16A
:1018F00018033B4DA3EB0903DB0805FB03F525F0BB
:101900006045023505EB450507EBC505B44236D009
:1019100005F1080204F1080021460EE042F8083CF7
:1019200003681360183150F8043C42F8043CB1429B
:1019300000F1180002F1180214D042F8082C50F8F7
:10194000083C9842EAD1D0F800E0D0F804C083689F
:10195000D0F80C80C2F80C80C2F800E0C2F804C0D5
:101960009360DFE7091B1E4B1839C90803FB01F11F
:1019700021F06041013101EB410105EBC105B9F1F5
:10198000000F02D0484602F0BBF8019BCAF80830AD
:10199000CAE9007503B0BDE8F08FA1EB090B18256B
:1019A00051E7D3F800B0D3F804E0D3F808C0D86802
:1019B0005061C2F808B0C2F80CE0C2F810C05BE792
:1019C000084823F07EFAAA4228BF2A46182505FBBC
:1019D00002F538E7ABAAAAAA55555505F8FFFF7FCF
:1019E000ABAAAA0A444803082DE9F0430023C0E942
:1019F000003387B00746154683600DF108080B7861
:101A00009D420C4604D01BB114F8013FAB42FAD101
:101A10004FF0000322466846CDF80080FEF74AFEEC
:101A2000D7E901639E42B64617D006F1080CC6F806
:101A300000C0009B43451BD03360029BB360019BF9
:101A4000CEF8043018367E60214611F8013B002B99
:101A5000D5D1384607B0BDE8F083384631466A46EE
:101A6000FFF7D4FE00984045EED002F049F8EBE7CE
:101A7000C146B9E80F00B060F160326173617E6801
:101A8000DDE700BFF0B585B005462C2201A8FFF7C1
:101A9000ABFFDDE901470023BC42C5E90033AB6081
:101AA00006D12AE01834A3EC010AA7426B6011D0DA
:101AB000002120682AF09EFFD5E9011291420B46D1
:101AC0008DED000AEED16A4628461834FFF7F0FD86
:101AD000A742EDD1DDE90167BE420ED006F1080450
:101AE00054F8080CA04206F1180604F1180401D0BD
:101AF00002F006F8B742F3D1019F17B1384601F062
:101B0000FFFF284605B0F0BD2DE9F04184B0054641
:101B1000904601A82C22FFF767FFDDE9014700236B
:101B2000BC42C5E90033AB6006D12AE043F8040BA0
:101B30001834A7426B6011D00021206842462BF078
:101B40005DF8D5E90116B1420B460090EED16A4628
:101B500028461834FFF704FEA742EDD1DDE90167FE
:101B6000BE420ED006F1080454F8080CA04206F15B
:101B7000180604F1180401D001F0C2FFB742F3D1F6
:101B8000019F17B1384601F0BBFF284604B0BDE8FD
:101B9000F08100BF30B51D4A00F108030C46036018
:101BA00083B0911E4FF000030546FEF783FD052C20
:101BB0000BDC3434E4B20094696801230022284627
:101BC00023F06CFB284603B030BD3923009300227C
:101BD00001236968284623F061FB6A686FF040437F
:101BE0009A420FD00A490122284623F015FC2B34D3
:101BF000E4B2416800940123002223F04FFB284601
:101C000003B030BD034823F05CF900BF3649030838
:101C100050490308384903082DE9F0412C4A88B09F
:101C20000C464FF00003A2F11C01064604AF02A8C7
:101C30000297FEF73FFD0022DDE90213204623F064
:101C400082FC421C18D0DFF89480014600256268AF
:101C50008A4237D3521A012A28BF012243460095EF
:101C6000204623F05BFBDDE902130022204623F02F
:101C70006AFC431C0146EAD1234606F108013160A3
:101C800053F8082B9A4212D0A1683260B1600298D2
:101C900062682360B8424FF0000372606360237291
:101CA00001D001F02DFF304608B0BDE8F081D3F837
:101CB00000C05D689868DA687261C6F808C0F560AF
:101CC0003061E4E7134603480A46034923F0FFF86E
:101CD000704903081C470308744903080C4F0308A4
:101CE00070B501230D46044600220846164923F02C
:101CF000FCFB431C17D06B68461C5A1C9E42A2EB8F
:101D000000021CD804F10801216029689B1B3144A2
:101D1000934294BFCA188A1820464FF00003FEF77A
:101D2000C9FC204670BD094A04F10803236020461F
:101D300011464FF00003FEF7BDFC204670BD04497C
:101D40000448324623F0C3F8B44D03080C4F03088F
:101D5000044703081C4703082DE9F04F4B68002592
:101D60008FB0058045808580002B79D0031DDFF87A
:101D700004B27D4C01930F46A0F102090DF1100A47
:101D800001232A465946384623F0AFFB0023421C64
:101D9000CDE902A306468DF8103064D07B68AB42D3
:101DA000A0EB0502C0F0D58039685B1B2944934243
:101DB00094BFCA188A180DF128084FF0000308A82C
:101DC000CDF82080FEF776FC089B029843457FD033
:101DD000504500F08B80DDE90912CDE90231049B0A
:101DE0000492002800F0878008900A93002309934A
:101DF00003700898404501D001F082FE02988446A5
:101E00001CF801EBBEF1000F00F09A8000210D4696
:101E100005EB0E02A4FB0253DB09C3EB0323D31A29
:101E20001944A4FB0152D209C2EB02221CF801EBB7
:101E30008A1A91B29DB2BEF1000FE9D143EA0223A2
:101E400029F8023F731C3ED0504506F1010501D030
:101E500001F056FE7B689D4202D2019B4B458FD11B
:101E60000FB0BDE8F08F7A68AA4277D339680DF1D8
:101E700028080A444FF0000308A82944CDF8208020
:101E8000FEF718FC089B029843453AD0504546D0CF
:101E9000DDE90912CDE90231049B0492002843D008
:101EA00008900A930023099303700898404501D0D5
:101EB00001F026FE029884461CF801EBBEF1000FEB
:101EC000A4D1A9F802E05045CAD001F019FEC7E735
:101ED000099A32B1012A2DD0414627F0F1F8099A2A
:101EE000029803920023835408987FE7099A02938B
:101EF0000A9BCDE90323CDF820800DF12808404648
:101F000074E7099A32B1012A1DD0414627F0D8F86A
:101F1000099A02980392002383540898C2E7099A09
:101F200002930A9BCDE90323CDF820800DF1280808
:101F30004046B7E79DF828300370099A0298D0E729
:101F400029F802EF80E79DF828300370099A02987B
:101F5000E0E7064906482A4622F0B9FF134603493E
:101F600003482A4622F0B3FF81808080044703089B
:101F70001C4703085049030870B5054682B011B3E9
:101F8000541A0F2C0E4601940BD8012C006822D154
:101F90000B780370019C28686C600023035502B025
:101FA00070BD002201A923F055F8019B2860AB60A9
:101FB0002246314627F084F8019C28686C60002393
:101FC000035502B070BD4AB90068144600236C6026
:101FD000035502B070BD002CDED0E9E7014822F0C5
:101FE0006DFF00BF90460308F0B501238FB00C468B
:101FF0000546002208464D4923F077FA431C47D096
:10200000D4E900120646904294BF0A188A184FF08D
:10201000000304AF02A80297FEF74CFB6368013689
:102020009E427DD821689A1B31449A4294BF8A18F7
:10203000CA180AAE4FF0000308A80896FEF73AFB4C
:10204000089B2068B34242D004F1080290424CD071
:10205000DDE90912C4E90031A368A260002849D073
:1020600008900A930023099303700898B04201D0A6
:1020700001F046FD029B05F10804BB422C603DD0F7
:10208000049A2B60AA60039B6B6028460FB0F0BDDA
:10209000D4E900120AAE0A444FF0000308A80896DB
:1020A000FFF76AFF002100916268214B204623F070
:1020B00035F9089C05F10807B4422F6024D00A9A2C
:1020C0002C60AA60099B6B6028460FB0F0BD099A8E
:1020D00032B1012A1ED0314626F0F2FF099A20685B
:1020E0006260002383540898BCE7099A23600A9B26
:1020F000C4E9012308960AAE3046B3E70FCFA860C3
:10210000E9602A616B61BEE70FCCA860E9602A61D3
:102110006B61D7E79DF828300370099A2068DFE7E4
:1021200004490548324622F0D2FE00BFB44D0308F0
:102130000C4F0308044703081C4703082DE9F04F20
:102140009E4D2A68D2E90C328FB00C461A441946CB
:10215000064604AF02A84FF000030297FFF70CFFFA
:102160006268002A00F00F8121680B782F2B00F0A5
:1021700081810AADDFF85082AA46A94644E004F105
:102180000802904200F08E80DDE90912C4E90031B6
:10219000A368A260002800F08A8008900A930023B8
:1021A000099303700898A84201D001F0A9FC844962
:1021B00001234FF0FF3202A823F0ADF9DDE902124E
:1021C0004FF00003904294BF0A188A1808A8089597
:1021D000FEF770FA089A0298AA424CD0B84258D03A
:1021E000DDE90931CDE90223049A0491002855D094
:1021F00008900A920022099202700898A84201D021
:1022000001F07EFCD4E90012032A94BF8A18CA1C8C
:102210004FF0000308A80895FEF74CFA414608A8BD
:1022200023F0A9F9089BAB42834602D0184601F07F
:1022300067FC6268BBF1000F3DD1022A40F27E814B
:10224000216808950A444FF0000308A80331FEF7FF
:1022500031FA089B2068AB4291D1099A32B1012A28
:102260007DD0294626F02CFF099A20686260002361
:102270008354089893E7099A32B1012A79D0294604
:1022800026F01EFF099A02980392002181540898B3
:10229000B0E709990A9B0292CDE9031308954846D5
:1022A0005546A7E7099A23600A9BC4E901230895CC
:1022B0004846554673E721680895022A94BF8A1854
:1022C0008A1C4FF0000308A8FEF7F4F93D4908A85E
:1022D00023F051F9089BAB42804602D0184601F02A
:1022E0000FFCB8F1000F71D0DDE902120A4412F8B8
:1022F000013C2F2B54D04FF0000308A80895FFF79E
:102300003BFE2F23099900930022012308A822F005
:10231000C5FFD4E9001208A823F07EF806F10801F1
:102320000346316053F8082B9A4200F0B48081686C
:102330003260B16042680360002372600372089AE1
:102340004360AA4202D0104601F0DAFB0298B8427C
:1023500001D001F0D5FB30460FB0BDE8F08F9DF8FD
:1023600028300370099A206862600023835408981B
:1023700015E79DF828200270099A0298039200211F
:102380008154089836E72B6806F108023260D3E9D9
:102390000C1230460A444FF00003FFF7EDFDD5E77D
:1023A00006F10803336030464FF00003FFF7E4FD09
:1023B000D4E90012304623F02FF8C7E71C040020B0
:1023C00090490308944903088C4903086268012A6C
:1023D00040F2BA80216808950A444FF0000308A82B
:1023E0000231FEF767F9089B2068AB4260D004F128
:1023F0000802904278D0DDE90912C4E90031A368EF
:10240000A260002875D008900A93002309930370F6
:102410000898A84201D001F073FB4E4901234FF008
:10242000FF3202A823F077F8DDE902124FF0000333
:10243000904294BF0A188A1808A80895FEF73AF93E
:10244000089B0298AB4241D0B84256D0DDE9091250
:10245000CDE90231049B0492002853D008900A93DE
:102460000023099303700898A8423FF43DAF01F0A0
:1024700047FB39E7234606F10800306053F8081B94
:10248000994243D0A0683160B06000217260C4E915
:10249000003121725AE7D3F800E0D3F804C09C68F9
:1024A000DA687261C6F808E0C6F80CC0346141E72A
:1024B000099A32B1012A35D0294626F001FE099A3F
:1024C000206862600023835408989EE7099A32B11D
:1024D000012A2DD0294626F0F3FD099A029803928D
:1024E000002383540898BBE7099A23600A9BC4E938
:1024F000012308950AAD284687E7099A02930A9BAB
:10250000CDE9032308950AAD2846A9E7DA68D3F890
:1025100000C05D6899683161C6F808C0F5607261F5
:102520006268B2E79DF828300370099A2068C8E70E
:102530009DF828300370099A0298D0E7134606499F
:102540000648032222F0C3FC134603490348022233
:1025500022F0BDFC90490308044703081C47030808
:10256000034610B5044653F8080B984201D001F019
:10257000C7FA204610BD00BF0B460068114647F25F
:102580006932FEF7ADBC00BF38B5056804462DB111
:102590002846FEF753FB284601F0B2FA00232360D9
:1025A00038BD00BFF8B50C460646FFF7EDFF0C201E
:1025B00022F0A6FA0546FEF719FB35601CB1D6E9F4
:1025C0000147BC4201D1F8BD356854F8040B0368DB
:1025D00029469B689847A742F6D1F8BD10B5046814
:1025E00034B12046FEF748FB044650B1204610BDEA
:1025F000074B08491B68586803689B689847204642
:1026000010BD0548044600F0ADF9204610BD00BFDE
:102610001C04002098490308E803002010B582B08C
:102620000C466946ADF80040ADF80220ADF8043024
:10263000FFF7D4FF02B010BD2DE9F84FD0E90097A5
:102640006FF06048A7EB0903B8EBA30F3DD09346AA
:102650009A1005468A469AB3B2EB420F4FEA4203FC
:10266000A1EB090428D9DFF87880404622F048FA27
:1026700006468044DBF800303351002C04DD22464E
:102680004946304626F0B6FDA7EB0A070434002F72
:10269000344404DD51463A46204626F0ABFD3C4426
:1026A000B9F1000F02D0484601F02AFAC5E90064EA
:1026B000C5F80880BDE8F88F53B998461E46D9E79B
:1026C000A1EB09044FF00408CFE7044822F0F9FB1E
:1026D000984528BF98464FEA8808C6E7444803084B
:1026E000FCFFFF7FD0E90132934210B504D00A68A5
:1026F00043F8042B436010BD0A461946FFF79CFFC0
:1027000010BD00BF2DE9F0434FF0000889B0C0E9CB
:1027100001880546C0F80C80C0F80080102022F027
:10272000EFF9714E714905F10409044603F0D2F93D
:10273000484602A90294FFF7D5FF96E80F0004ACC3
:102740002746029407C70D223B7002A88DF81D8012
:102750000392FEF74BFF029BA342074602D01846A6
:1027600001F0CEF9002F7BD096E80F0026460294A8
:1027700007C60D2100223370242003918DF81D20FF
:1027800022F0BEF95A4A02A9064602F0DBFC029882
:10279000A04201D001F0B4F926B102A94846029640
:1027A000FFF7A0FF534E029496E80700234603C3A9
:1027B0000A271A80002102A803978DF81A10FEF745
:1027C00015FF029BA342074602D0184601F098F974
:1027D0000FB396E807002346029403C30A2600219C
:1027E0001A80242003968DF81A1022F089F9424AA3
:1027F00002A9064602F0A6FC0298A04201D001F010
:102800007FF926B102A948460296FFF76BFF2846DA
:1028100009B0BDE8F083DFF8E880029498E80F0083
:10282000264607C60E22338002A88DF81E7003923A
:10283000FEF7DCFE029BA342064602D0184601F0DA
:102840005FF9002EE3D098E80F002646029407C6F1
:102850000E2100223380242003918DF81E20C4E72E
:10286000112301A93A4602A8CDE9013422F0F2FB76
:10287000DFF888C0019B04930646BCE80F009CF873
:1028800000C00296306086F810C07160B260F360DC
:10289000DDE9013202A80393D754FEF7A7FE029B9D
:1028A000A342064602D0184601F02AF9002E3FF452
:1028B00079AF112301A9002202A8CDE9013422F049
:1028C000C9FB0E4F019B049306460FCF3F7802963B
:1028D000306071603774B260F360DDE9013200216D
:1028E00003932420D1544BE7DC490308D44903085F
:1028F000EC490308084A0308144A0308F44903088A
:10290000184A030810B5054C204600F013F820467D
:10291000034A0449BDE8104022F0DAB8E803002079
:1029200088010020612500080022C0E90022C0E9DA
:102930000222704710B5002282B0C26100F1080186
:102940000022C0E90012C0E9082202728261044B31
:1029500000921146044622F0E1FC204602B010BD70
:102960000C4F030800B5002183B0C1610021C0E90C
:10297000081142688161034B009122F0CFFC03B043
:102980005DF804FB0C4F030890F8263010B50446A0
:1029900033B9044B04491B68586803689B6898471F
:1029A000204610BD1C040020284A030808B590F8F2
:1029B000263013B990F8273043B907490323002282
:1029C00022F093FD013018BF012008BD8069003856
:1029D00018BF012008BD00BF844A030807EE901A03
:1029E000F8EEE77A0122C0ED077A816180F82720AE
:1029F000704700BF012280F8272080ED070A70474A
:102A000090F8263010B5044623B9012380F827300A
:102A100022F0B0FB204610BD70B590F8263092B081
:102A2000044633B990F827301BB190ED070A12B075
:102A300070BDD4E900120CA80A440EAD4FF000039B
:102A4000002605960C95FFF797FA06A80CA9FFF744
:102A5000E3F80C98A84201D001F052F8069D05A9B0
:102A6000284629F0C7FF059BAB4210D80E4BA58C1A
:102A70001B68618C5868238C02688DED030ACDE9D0
:102A800000150A4995682268A8479DED030A069833
:102A900008AB9842CBD08DED030A01F031F89DEDE3
:102AA000030A12B070BD00BF1C040020884A03084E
:102AB00000F1080310B50360D1E90032044619465D
:102AC0001A444FF00003FFF757FA204610BD00BF2D
:102AD0000EB4002003B07047704700BF084628F0CE
:102AE0002FBE00BF10B5044601F00AF8204610BD05
:102AF0000EB4F0B592B017AB074653F8046B0193D0
:102B0000324602A840212AF043FA451C3F2D0446D4
:102B10000DDC3B68124A5B69934202D002A9384639
:102B20009847204612B0BDE8F04003B070472846F1
:102B300021F0F7FF019B3246294605462AF028FA84
:102B40003B68074A5B69934205D1002DE9D02846CE
:102B500021F0C5FFE5E7384629469847F5E700BF6D
:102B6000DD2A00080348044B044A0549036021F0AC
:102B7000AFBF00BF10040020204B030888010020D5
:102B8000D92A0008F8B5046900F10806B44212D049
:102B90000F4600252069036839465B69984703465C
:102BA0009D422046B8BF1D4622F030F8B042044690
:102BB000F0D12846F8BD00252846F8BD2DE9F0479C
:102BC0002DED048B00F10803EAB00022C0E90032C9
:102BD00004460D4602720DF1230344F68A514FF468
:102BE0004C40FEF7CDFA08B98DF8230063686FF00A
:102BF0004046B34200F06C830122A349204622F0F4
:102C00000BFC95F8B8309A0700F118839DF8232043
:102C1000002A40F04D811F0740F11A836368F61ABD
:102C2000032E40F2558399490422204622F0F4FBFA
:102C3000EB6893ED448AD3ED438AD3ED427A93F85F
:102C400034308DED0F8ADE07CDED108ACDED117A8F
:102C500040F1DA829FED8E9AC7EE897A88EE098A72
:102C600017EE900A22F03EFEC8EE897A06460F461D
:102C700017EE900A22F036FE8046894618EE100ABA
:102C800022F030FECDE90067CDE90401CDE90289EB
:102C9000804A4AA8802128F031FA63686FF04047E3
:102CA0008028A7EB030328BF8020052B064640F2AF
:102CB0000F8379490622204622F0AEFB4368FF1AB3
:102CC000BE4200F205834AA9324622F0A5FBE9681C
:102CD00091F89C31032B35D99FED6D8A6F4F0326F8
:102CE0008B6891F8342053F82630D3ED0B7AD3ED6E
:102CF000086AF8EEE77AD00787EEA67A48BF87EE33
:102D0000087A17EE100A22F0EDFD3A46CDE90001EF
:102D100080214AA828F0F2F9616880286FF04043CA
:102D20000246A3EB010328BF80229342C0F0D08269
:102D30004AA9204622F070FBE96891F89C310136DF
:102D4000B342CDDC0FAA12A805F042FCEB68DDED22
:102D5000147A93F83430D90740F163829FED4C8A9E
:102D6000C7EE887A17EE900A22F0BCFDDDED137AEB
:102D7000C7EE887A8046894617EE900A22F0B2FDA7
:102D8000DDED127AC7EE887A06460F4617EE903AC6
:102D9000184622F0A7FDCDE90267CDE90401CDE98F
:102DA00000893C4A80214AA828F0A8F963686FF09E
:102DB00040478028A7EB030328BF8020052B064649
:102DC00040F2868236490622204622F025FB4368DF
:102DD000FF1ABE4200F27C8232464AA922F01CFB56
:102DE000EE68304605F088FD96F834309FED2D7A78
:102DF000DA0748BFDFED267AEB68B0EE408A48BFBD
:102E000080EE278AD3ED567AC7EE277A17EE900A1E
:102E100022F068FD02460B4618EE100ACDE90223A7
:102E200022F060FD204ACDE9000180214AA828F067
:102E300065F9616880286FF040430246A3EB010307
:102E400028BF80229342C0F043824AA9204622F044
:102E5000E3FA95F8B830C3F380005B07024640F10F
:102E6000678162686FF040439B1A012B40F2308209
:102E70000E490222204622F0CFFA20466AB0BDEC6D
:102E8000048BBDE8F08700BF3C4B0308504B0308A0
:102E90003333CB41644B0308784B0308804B030862
:102EA000884B03080080BB45A84B0308C84B0308A8
:102EB0006368F61A032E40F20B82BE4904222046B4
:102EC00022F0AAFAE86809A905F018F9E868C369C8
:102ED0000DF1A80A53B1012309AA4A928AF80030D9
:102EE0001430C36852464AA99847E86890F83430CD
:102EF000DDED097AD80700F1B98117EE900A22F0CA
:102F0000F1FC06460A980F4622F0ECFC0B9B80462B
:102F10008946184622F0E6FCCDE90067CDE90401B8
:102F2000CDE90289A44A8021504628F0E7F8636879
:102F30006FF040478028A7EB030328BF8020052BB4
:102F4000064640F2C5819D490622204622F064FAD9
:102F50004368FF1ABE4200F2BB815146324622F05E
:102F60005BFAE96891F89C31032B34D99FED948A80
:102F7000944F03268B6891F8342053F82630D3ED14
:102F80000B7AD3ED086AF8EEE77AD10787EEA67AD6
:102F900048BF87EE087A17EE100A22F0A3FC3A46E3
:102FA000CDE900018021504628F0A8F86368802808
:102FB0006FF0404228BF8020D21A8242C0F0888140
:102FC00002465146204622F027FAE96891F89C31E2
:102FD0000136B342CEDC0B980A9A099B4A904B9279
:102FE0000CA84AAA4C9305F0F3FAEB68DDED0E7AD3
:102FF00093F83430DA0740F15C819FED718AC7EEB7
:10300000887A17EE900A22F06DFCDDED0D7AC7EE9E
:10301000887A06460F4617EE900A22F063FCDDED33
:103020000C7AC7EE887A8046894617EE903A1846A1
:1030300022F058FCCDE90067CDE90401CDE9028911
:103040005D4A8021504628F059F863686FF0404788
:103050008028A7EB030328BF8020052B064640F2FB
:10306000378159490622204622F0D6F94368FF1AD3
:10307000BE4200F22D813246514622F0CDF9EE6873
:10308000AB69DFED527A93ED088A96F83430DB07AE
:1030900028EE278A48BFDFED4A7A304648BF88EEDF
:1030A000278A05F029FC96F83430DF07EB6848BF23
:1030B000DFED437A9FED467AF0EE408A48BFC0EEDE
:1030C000278AD3ED567AC7EE277A17EE900A22F0B8
:1030D00009FC02460B4618EE900ACDE9042322F0C3
:1030E00001FC02460B4618EE100ACDE9022322F03D
:1030F000F9FB384ACDE900018021504627F0FEFF58
:10310000616880286FF040430246A3EB010328BFAB
:1031100080229342C0F0DC805146204622F07CF9A8
:1031200095F8B830C3F380005B0702463FF599AECF
:1031300025908DF8980026AF15AB4BF2D3114AF6C7
:103140001640CDE9152224971792FEF719F8DDE90C
:10315000155658B3AE4200F0B980DFF87C906FF09E
:1031600040482B696868079322F0BCFBCDE9020157
:10317000286822F0B7FB079BCDE900014A462021D1
:1031800018A827F0BBFF636820280246A8EB0303BA
:1031900028BF20229A4200F29B80283518A9204699
:1031A00022F03AF9AE42DCD1DDE91556B54220D025
:1031B00014E000BF484B0308644B0308784B030836
:1031C0003333CB41804B0308884B03080000704227
:1031D0000080BB45904B0308B84B0308286905F1F4
:1031E0001803984201D000F08BFC2835B542F5D188
:1031F000159E16B1304600F083FC2498B8423FF487
:1032000030AE00F07DFC2CE617EE900A22F06AFB4F
:10321000064618EE900A0F4622F064FB8046894667
:103220002CE517EE900A22F05DFB80461398894644
:1032300022F058FB129B06460F46A9E56368F61A72
:10324000042E45D924490522204622F0E5F8EFE472
:10325000A86908F07DFE6368F61A10B3032E37D90B
:103260001E490422204622F0D7F8E1E49FED1C8A93
:10327000C7EE887A17EE900A22F034FBDDED0A7A69
:10328000C7EE887A06460F4617EE900A22F02AFB10
:10329000DDED0B7AC7EE887A8046894617EE903AC4
:1032A00037E6022E14D90F490322204622F0B4F843
:1032B00008E617EE900A22F015FB06460D980F4619
:1032C00022F010FB0C9B80468946B0E62E466DE747
:1032D000054821F0F6FD00BF404B0308584B03089A
:1032E0003333CB41604B0308384903080B68084669
:1032F0009B6818472DE9F04F072983B00D46824699
:1033000093462ED000F14C0301EB410203EB820007
:1033100053F82240D0F8048044451FD00123019384
:10332000DFF8909009EBC5035F687E1007F0010796
:1033300007E09A5959F835305946D3589847A0456F
:103340000AD054F8043B9819002FF2D159F83530BF
:1033500059469847A045F4D1072D1DD003B0BDE8CC
:10336000F08F90F8B830002A0CBF0122002262F3DF
:10337000410380F8B83006D0DBB21A0744BF6FF3C0
:10338000C30380F8B830DAF8180008F0E1FDDAE994
:10339000284844450190C3D19AF8B8309B0702D51C
:1033A000019B002BDAD1DAF80C0003B0BDE8F04F36
:1033B00005F0E8B99C4C030801EB410100F14C0316
:1033C000E0B506468F0003EB8100DB594568AB4250
:1033D00002D110E09D420ED018460433016891429C
:1033E000F8D19D42194602D0EA1A25F003FFF119DF
:1033F0000B6D043B0B65E0BD69B138B505460C4665
:10340000E1682846FFF7F8FF2046A46800F078FB43
:10341000002CF5D138BD704710B5044BC16803606E
:1034200004460430FFF7E8FF204610BDD44B0308E4
:1034300010B5064BC168036004460430FFF7DCFF9B
:10344000204600F05DFB204610BD00BFD44B0308B2
:103450002DE9F84FD0E900976FF06048A7EB09031A
:10346000B8EBA30F3DD093469A1005468A469AB30F
:10347000B2EB420F4FEA4203A1EB090428D9DFF86F
:103480007880404621F03CFB06468044DBF8003063
:103490003351002C04DD22464946304625F0AAFE71
:1034A000A7EB0A070434002F344404DD51463A46A2
:1034B000204625F09FFE3C44B9F1000F02D048465B
:1034C00000F01EFBC5E90064C5F80880BDE8F88F70
:1034D00053B998461E46D9E7A1EB09044FF00408FA
:1034E000CFE7044821F0EDFC984528BF98464FEA05
:1034F0008808C6E744480308FCFFFF7F30B501EBAE
:10350000410300EB8304D4E9141583B0A94201926E
:1035100004D041F8042B216503B030BD9B004C3032
:10352000184401AAFFF794FF03B030BD70B52DED2C
:10353000028B00F138030022036384B0044600F1DB
:103540003005426380F8382000F14C0300F1B801E7
:103550009A60C3E900220C338B42F9D194F8B83059
:10356000C54A23F02A0384F8B830212103A8146047
:10357000FDF7FCFC012103A8FDF71AFD4FF48C7048
:1035800021F0BEFA4FF416530A220921064603F031
:10359000C7FF2660102021F0B3FA0646FFF7B2F805
:1035A000304666610121FEF7FDFF206810B1036817
:1035B0005B689847002626601C2021F0A1FA0123B1
:1035C0000246606000932846AC4B136002F1080588
:1035D000C2E90455AA4B16723146D6609661626BF9
:1035E00021F09CFEA7492368CA684FF6FF000240FD
:1035F00042F0BF6242F40032CA60002B00F01B812F
:10360000A14D606900231A464CF6DF11FFF706F85A
:103610000021FFF7E3F9FFF7C9F994F8B820034652
:1036200083F0010363F30002002384F8B82060698B
:103630001A4648F2AE01FEF7F1FF0021FFF7CEF97E
:10364000FFF7B4F994F8B820034663F3820200232D
:1036500084F8B82060691A4643F66621FEF7DEFF5B
:1036600094F8B810C1F38001FFF7B8F9FFF79EF99D
:1036700094F8B820034663F34512002384F8B82079
:1036800060691A4645F68B31FEF7C8FF0121FFF746
:10369000A5F9FFF78BF9236894F8B820196860F34F
:1036A000041284F8B82018468A689047002342F62E
:1036B000AA22606944F2ED11FEF7B0FF4FF41651F3
:1036C000FFF78CF9FFF7A8F928684FF48C71B0EE7A
:1036D000408A00F0F3F8FDEEC87A362217EE903AF1
:1036E0003521054603F01CFF284603F095FF2820EE
:1036F00021F006FA0546FDF78BF965622846FDF7CD
:1037000039F9442021F0FCF9054600F0E5FDA562F9
:103710004FF4927021F0F4F95A4D064600F0B2FAD7
:10372000EB685A4AE6624FF6FF010B4043F0BF6375
:1037300043F400332021EB60102082F83713402639
:103740005021302382F82D0382F8366385F8223029
:1037500082F80003002382F8121382F84D1382F8D6
:10376000251382F8261382F8271382F83413606930
:103770001A4645F29E51FEF751FF4549FFF72EF9D3
:10378000FFF74AF9BCEEC00A00231A4684ED120A7C
:1037900060694AF25D51FEF741FF0121FFF71EF912
:1037A000FFF73AF9D4ED127AA06AB0EE408AB8EE8B
:1037B000670A00F06BFDB0EE480AA06A00F0FAFD5F
:1037C000282021F09DF9054608F090FBA5612846C8
:1037D00008F026FB2C2021F093F9054602F058FC56
:1037E000A560284602F0F8FB4FF4D07021F088F96C
:1037F000054604F07BFAE560284606F07DFD0420CE
:1038000021F07EF9054600F0DBFB224B2B602562A0
:10381000284617F039FC282021F072F9054603F0FC
:1038200073FF2561012021F06BF9E061204604B0AF
:10383000BDEC028B70BD42F6AA2244F2ED11606924
:10384000114DFEF7EBFE4FF41651FFF7C7F8FFF7E7
:10385000E3F84FF48C712868B0EE408A00F02EF83F
:10386000FDEEC87A064617EE903A0A22092103F0C7
:1038700057FE2660C5E600BF1C040020D44B030899
:103880009049030800ED00E01404002000E100E08E
:10389000A0860100708C030830B400248C70150AD7
:1038A0002346054C0A704D70CB702568056020607A
:1038B000416030BC02817047200400208B071CBF90
:1038C00021F003010431F0B4043145688EB234466E
:1038D0002A460AE001F07F0743EA0763A3421DD2AC
:1038E00001891A446B189A4215D892F9033092F85C
:1038F00001C09778D178002B137843EA0C2343EA70
:103900000743E7DA01F07F0143EA016301891A44C2
:103910006B189A42E9D90020F0BC704741F0800151
:10392000D1702FD99119270ACB786FF3C713CB70B9
:10393000137892F801C0957843EA0C2343EA0543D3
:10394000D57805F07F0543EA05639B1B9355CD7839
:10395000C3F307264E7025F07F05C3F30746C3F374
:1039600006632B438E70CB70D378147003F0800302
:1039700000245770D370947044680389091B9942DE
:1039800000DB00BE101DF0BC704700BFF0B511F8A1
:10399000015C11F8034C11F8043C11F8022C6FF390
:1039A000C71543EA042343EA024305F07F0243EAD2
:1039B00002620E1FB41801F8015C94F90330002B69
:1039C00025DB43680589E31AAB4200F38680237840
:1039D0006778A578E47843EA072343EA054304F0CF
:1039E0007F0443EA046311F8014C1344C3F30665F2
:1039F00024F07F022A43C3F30744C3F3072501F8E9
:103A0000043C01F8012C01F8035C01F8024C456804
:103A10002B786F78AC78EA7843EA072302F07F02CC
:103A200043EA044343EA02632A4615E003899C42C1
:103A300005EB030750DA137892F801E092F802C020
:103A4000D47843EA0E2343EA0C4304F07F0453EA9C
:103A5000046341D0BA423FD2541B17461A44B242C3
:103A60001C44E3D197F90340002C35DB11F8044CDA
:103A700011F803CC11F8026C11F8015C44EA0C2433
:103A800044EA064405F07F0544EA0564FD782344D2
:103A9000C3F3066625F07F043443C3F30745C3F33D
:103AA00007263B70FC707E70BD7011F8044C11F855
:103AB000037C11F8026C11F8013C4568008944EA66
:103AC000072103F07F0341EA064141EA0361531BEA
:103AD0000B44834200DB00BEF0BD00BE11F8043C85
:103AE00011F8037C11F8025C11F8012C43EA07235A
:103AF00043EA054302F07F0243EA026267E700BF40
:103B0000074B1B6853B15A689042FAD319890A448B
:103B10009042F6D201461846FFF738BF1EF09CBA15
:103B2000200400202DE9F04F0B68446802899F684B
:103B3000DFF8C4B0DFF8C4A085B006460D462346C2
:103B40002A4928464FF00009B84773682849CDF83C
:103B50000C9002E0042A3CD9144494F801802078A7
:103B6000A27894F803E094F903C02F6840EA082093
:103B70000EF07F0E40EA024040EA0E601BEA2C0283
:103B800038BF5246D7F80880E31ACDE90020224614
:103B90002846C047227894F801E094F802C0E37800
:103BA00094F90300124942EA0E2242EA0C4203F061
:103BB0007F0342EA0362039BB6F808C013440393F1
:103BC00073680028A4EB03001044A8BF914460452B
:103BD000C0DB2B68039F9C6806494B463A46284643
:103BE000A44605B0BDE8F04F604700BF004C030895
:103BF000204C0308444C0308F04B0308F84B03081F
:103C00000346F0B45C681D890020224602E0042BC4
:103C100016D91A4492F9033057789678D178002B48
:103C2000137843EA072301F07F0143EA064343EA9E
:103C30000163A2EB04011944A8BFC018A942E6DB46
:103C4000F0BC70470F281ADC0D4B1A6810B402EB59
:103C50004004C1F30B01B4F8043103EBC00001339D
:103C60009BB2072B02EB4000A4F8043188BF00236D
:103C7000818088BFA4F804315DF8044B7047704719
:103C80002404002038B5094B04461C201C6020F099
:103C900037FF082205464FF47A7101F0F5FF2846F8
:103CA0000349256002F0EAF8204638BD24040020CC
:103CB000453C000810B50B46097958791EF0D2F939
:103CC000044904461FF0B8FE431C14BF20464FF0C1
:103CD000FF3010BDAC99030830B583B00446FFF740
:103CE000E9FF012201460190206802F05BF80F28ED
:103CF000019901D903B030BD03460422102010FB06
:103D00000320251800228033225004EB43036A600D
:103D1000AA60EA6020689A80012202F091F8206887
:103D2000012103B0BDE8304002F000B9884228D03C
:103D30002DE9F041861CB142074688460AD11EE0B3
:103D4000974204D0D21B3946B81C25F053FA464599
:103D50003D8014D03B88324636F8025BAB42EFD848
:103D600036F8044CA542A2F1020305D25C801A4643
:103D700033F8024DA542F9D346451580EAD1BDE896
:103D8000F08170472DE9F041541E04EBD474B1EB7F
:103D9000640F3BDA4FEA640E6FF000480C46661C75
:103DA000740004EB080530F8267030F815C025467D
:103DB000BC45054400EB860604D9013C00EB4406F3
:103DC00030F8147025F8027C7445E8DBD50722D55D
:103DD000651E05EBD5758C424FEA650506DC12E0E1
:103DE000A94220F814702C460DDA154630F81570EB
:103DF0006A1E02EBD272BB4200EB45064FEA62023A
:103E0000EED800EB44063380BDE8F081D40700EB28
:103E10004106F8D40C46023A02EBD272B4EB620FC0
:103E2000D6D1013400EB8402640032F8022C3280D7
:103E3000013C00EB4406CBE70B1A202B40F38780B4
:103E40002DE9F043044683B09146871C002A49D0EF
:103E50009B10608834F8132031F8025C904209F11D
:103E6000FF391FD2AA4234D3A8421FD322886280CE
:103E7000208031F8026C3D460B468242A8460ED3A4
:103E8000B042A3F1020303D233F8026D8642FBD89D
:103E90009D4212D22E801A80208833F8026C35F8A9
:103EA000022FEAE7A842E1D3AA4212D2268825804F
:103EB00021F8026C62882088DDE74A462846FFF731
:103EC000BBFF2B1B202B3FDDB9F1000F0BD0294688
:103ED000BEE72088228024F813006288208831F809
:103EE000026CC8E788465D10AF1E7E104FF00002DE
:103EF00034F816308DF8002027F0010731462A46A5
:103F000020462744FFF73EFF4FF00002013E8DF8A8
:103F1000002037F8023D31462A462046FFF732FF9F
:103F2000002EF1D138F8023D2288A8F80020A8EB35
:103F300004054FF000018DF800106A1000212046A2
:103F4000FFF720FF022DEDDC03B0BDE8F0837047E2
:103F500010B584B00446FFF7ADFE0146206801F0BD
:103F60000FFF72B61023042213FB002023182058E1
:103F700059689A68DB686C460FC462B6062221460F
:103F80006846FFF759FF684604A94FF00002FFF7A3
:103F9000CDFEBDF80620BDF80410BDF80830BDF810
:103FA0000A000A4413441844800804B010BD00BF3E
:103FB000704700BF10B50446FFF7A2FD204610BDB4
:103FC000014B0360704700BF6C4C0308024B024674
:103FD0001868FFF793BA00BF1C04002008280ED809
:103FE0000F290CD810B4064C012254F8203002FAE4
:103FF00001F10B4344F820305DF8044B70477047E3
:104000004C04002008280ED80F290CD810B4064CF8
:10401000012254F8203002FA01F10B4344F8203019
:104020005DF8044B704770472804002002299ABFAE
:1040300000EB810090ED000A9FED010A704700BF80
:104040000000C07F90ED015AD1ED007AD1ED025A07
:1040500090ED027A91ED016AD0ED006A27EEC51A63
:1040600026EE470A66EEE50AA5EE250A88B0A6EE1A
:10407000261AE7EE270A08B0704700BF90ED010A44
:10408000D1ED015A90ED006AD1ED006A90ED027A0F
:10409000D1ED027A20EE250AA6EE260AA7EE270A1F
:1040A000704700BF90ED010A90ED007AD0ED027AE2
:1040B00020EE000AA7EE070AA7EEA70A704700BF86
:1040C000D0ED010AD1ED016A90ED021A91ED027A6C
:1040D00090ED000AD1ED007A70EEE60A31EE471A53
:1040E00030EE670A88B008B0704700BFD0ED010A13
:1040F00090ED021AD0ED007A60EE200A20EE011A4F
:1041000027EE800A88B008B0704700BF01481FF052
:10411000A1BA00BF7004002008B50321FFF756FFC5
:10412000BDE8084001481FF095BA00BF70040020A8
:1041300008B50A4B1B6893F8B830DB0704D408486D
:104140001FF090FA00BE08BD00210648FCF74AFFA8
:1041500003481FF087FA00BE08BD00BF1C04002002
:1041600070040020DC03002010B5034B03600446FC
:10417000FFF71EFF204610BDEC4C030810B5054BA1
:1041800003600446FFF714FF2046FFF7B9FC204602
:1041900010BD00BFEC4C030870B5054682B0214C41
:1041A0001646FFF70DFF204B20492B604FF4C072DD
:1041B0007F23C4E90012C4E90233EEB91C4B019617
:1041C0001A6C42F400621A641B6C03F400630193DE
:1041D00020464FF40073019A23611FF027FA20460E
:1041E0001FF038FA134A144B926814491164284698
:1041F00001221A6002B070BD00210D4B01911A6CB2
:10420000216142F400621A641B6C03F400630193A1
:104210002046019B1FF00AFA20461FF01BFA284691
:1042200002B070BD70040020EC4C0308002C00406C
:104230000038024000ED00E000E100E031410008FC
:10424000034B186883680BB1C3681847704700BFF9
:104250008404002030B40A4B0A4C0B4A0121D96077
:104260004FF40005E1604FF40054002155605460A4
:10427000C1631A6842F0010230BC1A60704700BF87
:10428000001400400020004000E100E00F4B104A05
:104290001B685B08A2FB0323DB0807EE903AF8EEED
:1042A000E77AB0EE407A10B587EE870A044680EDD3
:1042B000047A22F095F8074BBCEEC00A0E2284ED7A
:1042C000050A9A626269DA6210BD00BFD00100205F
:1042D0008988888800140040F0B583B000252A4BF7
:1042E0002A4A4563C563009510601A6C856042F0E8
:1042F00020021A64196C264F264A274E9FED270A82
:1043000001F0200100910421DDF800C039609168BE
:104310000195C1F81C61196C214E224F41F4807146
:1043200019641B6C204903F4807301930C23DDF89E
:1043300004C033609368C3F8F470936899630446CB
:10434000FFF7A4FF194BDFED1A7A1B685B0800EE3C
:10435000103AB8EEC00A20EE270A22F041F894F88D
:104360004030BCEEC00A65F3440386ED0B0A84F8C6
:10437000403094F84030656365F300032046A56340
:1043800084F8403003B0F0BD0038024084040020BF
:104390000014004000ED00E0A54700080050C347AE
:1043A000002000404544000841420008D0010020A0
:1043B000ACC5A7369FED0A7AC0EE077A08B5094B5F
:1043C0001B685B0800EE103AB8EEC00A20EE270A20
:1043D00022F006F8044BBCEEC00A83ED0B0A08BDC0
:1043E00000247449D00100200020004090F84030A3
:1043F00013F01E0FF0B4C3F343051FD000230124B4
:1044000000F118064FF48037426B04FA03F11142B1
:1044100011D056F82320917A11F0020F0BD011F031
:10442000010F117AD2F804C014BF04FA01F107FA9F
:1044300001F1CCF818100133AB42E5D10023F0BCF8
:1044400043637047034A044B6FF001011868116120
:10445000FFF7CCBF00200040840400202DE9F04786
:10446000876B002F56D090F8403013F01E0F824615
:10447000C3F3430643D000227C6D914600F1180C33
:1044800001254FF4803EA36A05FA02F843B35CF8B5
:104490002230396D93F8129018EA010F14BF4FF0D3
:1044A00001084FF0000819F0020F09F0010109D0CE
:1044B00093F81090D868414514BF05FA09F10EFA37
:1044C00009F1816193F8391068F3000183F839101C
:1044D00093F8391041F002014FF0010983F83910C7
:1044E0000132D3B29E4204F13804CCD80023CAF87A
:1044F0003C30B9F1000F03D04846BDE8F087C663F1
:10450000064B1B684FF00009986907F063FE4846A8
:10451000BDE8F087B9464846BDE8F0871C04002096
:104520002DE9F04F90F8403085B013F0010F984B13
:104530000293054600F0CE80029B1B68039393F81C
:10454000B8309F07C3F3400600F1DB8095F8403098
:1045500013F01E0FC3F3430700F0DF80D5E90EC050
:10456000CDE90065DCF85430324605F1180E22E042
:10457000D3E9021418EB010A49EB040B4FF0FF34A6
:104580006FF04045544575EB0B01C3E902ABC0F237
:10459000F9805EF8221091F83910009C11F0020F9A
:1045A000C1F3400118BF0C4600940132D1B28F42D2
:1045B00003F138037FD9996A0029F6D019681C697C
:1045C00011EB04085C68196B25465C6945EB04092E
:1045D0008842C3E900893DD0B8F1010F79F10001AB
:1045E000C6DA00200021C3E9000104465EF822106B
:1045F0009860DC60D86A8C7A0130A507D8620AD549
:1046000014F0010F0C7A48680CBF01254FF4803577
:1046100005FA04F4846191F83940C86A14F0010F76
:1046200014BF4FF0FF3401242044C86291F8394090
:10463000062AC4F3400400F2A080019D01206E6BA5
:1046400090403043686394B191F83900C0062BD58F
:10465000E86BA0E7DCF844108842DCF8481011D081
:104660008842B9D1D3E90645C3E90445B4E791F8D6
:1046700039400020986260F341040198C06B81F8D2
:10468000394088E7DCF84C4000250026A142C3E908
:104690000456E5D201981963C06B8142E2D0D3E998
:1046A0000889C3E9008997E7D3E90A048442DED088
:1046B0000198C06B6FE7DDE900656B6B0130E86363
:1046C00023B1344A136843F0010313607EB305B08D
:1046D000BDE8F08F1B6800F13801986907F030FDE4
:1046E0000028F4D02846FFF7B9FE95F8403060F373
:1046F000000385F8403095F84030DE073FF51CAFE9
:10470000E5E795F8403000226FF30003C5E90E227B
:1047100085F8403005B0BDE8F08FEB6B6A6B013374
:10472000EB6322B11B4A136843F001031360039A41
:1047300000239069EB6307F04DFD029B1B6805F1B8
:104740003801986907F0FCFC68B995F84030A86317
:1047500060F3000385F840300F4B4FF080525A60F1
:1047600005B0BDE8F08F2846FFF778FE95F8403099
:1047700060F3000385F84030EEE708490848072356
:1047800020F0A5FB1AF100004BF140442EE700BFDA
:104790001C0400200020004000ED00E01C4D030838
:1047A000284D0308034A044B6FF00101186811619A
:1047B000FFF7B6BE001400408404002010B490F847
:1047C0004030C3F34302541C04F00F0400EB820298
:1047D00064F3440380F84030601E91615DF8044B3F
:1047E000704700BF30B4074A074D084C0849C264FF
:1047F0000022C0E91454C0E9112230BC8165027066
:10480000704700BF0123456789ABCDEFFEDCBA9846
:1048100076543210B2B1F0B4051F8B784C780F7813
:10482000CE781B0443EA04232C4608343B43241A65
:1048300043EA0663A24245F8043F01F10401ECD8C3
:10484000F0BC7047704700BFA2B130B40B1F1C46CC
:1048500053F8045F05701D682D0A45705D888570EA
:104860000834641ADD78C570A24200F10400EED865
:1048700030BC7047704700BF2DE9F04F93B0056D15
:10488000466DD0F85880D0F84C900190402202A894
:10489000FFF7C0FF029CDF4BDF48E049E04ADFF84A
:1048A000E0B3DFF8E0A3DFF8E0E3DFF8E0C3DD4FDB
:1048B0002344994486EA08032B4083EA0803039CB7
:1048C000994405EB796985EA0603204403EA090364
:1048D00073404044049CDDF84080184409EB30509C
:1048E00085EA0903214403406B403144059CCE4EC8
:1048F000194400EBF13180EA090322440B4083EABA
:10490000090315441D44069A0D9C01EBB52581EA67
:10491000000393442B404340CB449B44079B05EB4F
:104920007B6B85EA01029A4402EA0B024A40824408
:10493000089B0B9892440BEB3A5A8BEA05029E4473
:1049400002EA0A026A408E449644099AB7490AEB81
:10495000FE3E8AEA0B03944403EA0E0383EA0B0348
:10496000AC440A9AB24D9C440EEBBC2C8EEA0A036E
:10497000174403EA0C0383EA0A035F441F44AD4B68
:104980000E9ADFF80CB303440CEB77670C989A444B
:104990008CEA0E033B4083EA0E03A0F52440534407
:1049A0004F3807EB3353864487EA0C00184080EAFF
:1049B0000C00864403EBFE3E83EA0700214400EA34
:1049C0000E0078408C4484440EEBBC2C8EEA03012C
:1049D000164401EA0C01594037440F98119C964E39
:1049E000DFF8B0A20F440CEB77678CEA0E010544A8
:1049F000394092482B4481EA0E0540441D4407EBA0
:104A00003555864487EA0C00284080EA0C00704443
:104A10008B4905EBF03085EA0703214403407B40D6
:104A20008C449C4400EBBC290399089C89EA000350
:104A30000E442B4043403744DE1909EBF666814BA8
:104A4000814F824986EA090C23440CEA000C8CEA67
:104A5000090C1D44654406EBF5550D9C85EA0603DB
:104A6000274403EA090373403844184405EBB04E69
:104A70000298079C764F8EEA0503014433406B4051
:104A8000894403EB0901734B73480EEB3131234426
:104A90001E4481EA0E032B4083EA0E03334401EBEC
:104AA000F3630C9C83EA0106204406EA0E064E409E
:104AB0000544354403EBF55C1198069C674E8CEA7F
:104AC000030507440D405D40BE44654FAE440CEB0A
:104AD000BE402744394480EA0C071F4087EA0C0790
:104AE0000F4400EB37370B9C5E4DDFF8ACE187EAF3
:104AF0000001264401EA0C0141403344CE1807EB83
:104B0000F66686EA0703454403407B40AC44059CB7
:104B1000554903EB0C05DFF884C1544B06EBF55502
:104B2000A444604485EA060C0CEA070C8CEA060CE7
:104B3000604405EBB0400A9C80EA050C21440CEA75
:104B4000060C8CEA050C0F440CEB070100EB31312D
:104B50000F9CDFF84CC181EA000723442F40049CDE
:104B600047401E44BB1901EBF363A444AC4483EA01
:104B7000010505404D40654403EBF555099C3C4F4C
:104B80003C4E85EA030C27440CEA010C8CEA030C2A
:104B90003844604405EBB04080EA0507079C1644A2
:104BA00007EA030C8CEA050C31446144A4F5B82CE7
:104BB00000EB3131ACF2BE6C0A9C2F4E4F40634487
:104BC0003B4401EB3373A64481EA00070D9C5F4030
:104BD00075443D4403EB7555264483EA010C8CEA89
:104BE000050C3044DFF8BCE0244F069C604405EB24
:104BF0003040C64485EA03064640714406EB010E88
:104C0000039900EB7E2E0F4480EA050686EA0E0625
:104C10003B4449E078A46AD756B7C7E8DB70202444
:104C2000EECEBDC1D89880692211906BBED75C8949
:104C3000937198FDAFF7448B62251EF68E4379A6DB
:104C40002108B44940B340C0515A5E26AAC7B6E90C
:104C500081E6A1D85D102FD653144402E6CDE121A0
:104C6000C8FBD3E7D60737C3ED145A4505E9E3A9D6
:104C7000D9026F678A4C2A8D22619D6D44EABEA4D9
:104C8000AF0F7CF52AC68747134630A8019546FD2D
:104C900097FF2A434F7EA86F81F67187870DD5F461
:104CA000F8A3EFFC0C38E5FD9A4F9B4933440EEB1B
:104CB000337327448EEA0006099C5E403D44354428
:104CC00003EB7559214483EA0E0C08448CEA090C65
:104CD0000C99924F924D089C844409EB3C4C0F4434
:104CE00089EA030181EA0C01BE4401EB0E070F992A
:104CF0008C480CEB77270D448CEA09062B447E4048
:104D00001E44894D029B07EB36761D4487EA0C034F
:104D10007340A94403EB0905059BDFF8489206EBB5
:104D20007555184486EA0701844469407F48804BE2
:104D3000614405EB3141204485EA060C0B9C8CEA6A
:104D4000010C07440CEB070001EB7020234481EABF
:104D5000050E1E448EEA000E764B119C764FB6442B
:104D600000EB3E7E134480EA010686EA0E061D44EF
:104D700073190EEB735327448EEA000C39448CEA06
:104D8000030C8C446D4F04996D4E099C6D4D03EBE3
:104D90003C4C0F4483EA0E0181EA0C0138440F18A1
:104DA00002990CEB772767EA03000E44B64480EAC9
:104DB0000C06764407EBB666A34466EA0C0E8EEA50
:104DC000070E5B440EEB030B06EBBB5B45446BEA43
:104DD00007037340AC4403EB0C055B48079B5B493E
:104DE000DFF884E1DFF88481DFF884C10B9C0BEBF2
:104DF0007545184465EA060383EA0B030744D8198E
:104E000005EBF02060EA0B0311446B403144194478
:104E10004F4A059B4F4F504E00EBB1611A4461EA77
:104E200005035A44434013440C9A01EBB353A2F5D3
:104E3000801BABF6833B63EA00024A405D441544A5
:104E4000039A03EB7545964465EA01025A407044A3
:104E500010440A9A05EBF020924460EA030B8BEAB7
:104E6000050B5144119A594400EBB161914461EA38
:104E7000050242404B441344089A01EBB35363EAE2
:104E8000000E9044A8448EEA01050F9A454403EBB6
:104E9000754565EA01089444844488EA0300069A4B
:104EA000604405EBF020174460EA03020F4482EAF5
:104EB000050139440D9A00EBB16161EA050716441A
:104EC0001E4487EA0003049A244F3344244E01EB26
:104ED000B353164463EA00022E4482EA01053544C6
:104EE00003EB7545019E65EA0102274438445A40A8
:104EF0000244306DF46C281800EBF220726D1544FA
:104F0000B26D21441344F164C6E91405B36513B0CE
:104F1000BDE8F08FA9CFDE4B604BBBF670BCBFBEC7
:104F2000C67E9B288530EFD4FA27A1EA051D8804A8
:104F300039D0D4D9E599DBE6F87CA21F6556ACC41C
:104F4000442229F4A72394AB39A093FCC3595B6591
:104F500092CC0C8F827E53F735F23ABD91D386EB1B
:104F6000BBD2D72AE0E62CFED15D8485144301A391
:104F7000A111084E2DE9F8430546406CD300C31833
:104F80006B64AB6CC0F3C50928BF0133C9F140079E
:104F900003EB5273BA4216468846AB6409F101002E
:104FA00006D2324641462844BDE8F84324F088B88A
:104FB0003A46284424F084F8C9F18004691C284644
:104FC000FFF75AFCA64215D34744A9F180000744D5
:104FD00039192846FFF750FC23464034A642F7D241
:104FE0009844F61A0120324641462844BDE8F84369
:104FF00024F066B8A9F140000644B8440120D0E787
:1050000030B5044683B000F14405294668460822BD
:10501000FFF71AFC626C1249C2F3C502372A94BF2B
:10502000C2F13802C2F178022046FFF7A3FF6946B9
:1050300020460822FFF79EFF04F14C0104F15C00BA
:105040001022FFF701FC40220021601C24F03AF9F5
:105050000023012263646B60227003B030BD00BF87
:105060008C010020037810B504460BB1204610BD1A
:10507000FFF7C6FF204610BD2DE9F0410B788AB03E
:1050800080461BB30D46184F5B3501AC09AE204678
:1050900015F8012F3946023426F094F8B442F6D1BF
:1050A00008F10803C8F8003001A800238DF8243067
:1050B00026F046FB01AB1A18194640464FF0000394
:1050C000FBF7F8FA40460AB0BDE8F081074A00F164
:1050D0000803036011464FF00003FBF7EBFA40466C
:1050E0000AB0BDE8F08100BF5C4D03080C4F030817
:1050F0008088401AB0FA80F040097047034610B526
:10510000044653F8080F044A22600833984201D03D
:10511000FEF7F6FC204610BD284E0308034610B5E6
:10512000044653F8080F064A22600833984201D01B
:10513000FEF7E6FC2046FEF7E3FC204610BD00BF6C
:10514000284E030870B505460C4B45F8083B04464D
:1051500082B005F108030026C4E902361046267421
:105160000191FCF7F5F90199A080284620F002F89A
:10517000204684F8206002B070BD00BF284E0308AE
:10518000F0B5A5B006460D46174603A81A4683217A
:105190001C4623F073F828B326F0D2FA24AB03445C
:1051A00013F8853C0A2B12D067B1232103A826F0FF
:1051B000C9F838B9B2680C48394625F05FFC01E0FF
:1051C000013004D0204622F09BFF0A28F8D103A822
:1051D00026F0B6FA00906A6803AB2846002120F05A
:1051E0009DF8012025B0F0BD644D0308F8B50446D4
:1051F000084616460F4626F0A3FA00236360237282
:10520000716804F10803054623600144204620F03C
:1052100013F862686FF040439B1AAB420BD32A46E7
:105220003946204620F0F8F8D6E90012204620F052
:10523000F3F82046F8BD01481FF043FE3849030843
:10524000F0B5D0E902128DB00A444FF000030446D5
:1052500002AE68460096FCF78FFEDDE900124FF0C3
:1052600000030A4406A808AF0697FCF785FE06A8C7
:10527000FCF7BCF9069BBB42054602D01846FEF778
:105280003FFC15B1012384F820300098B04201D0D2
:10529000FEF736FC94F820000DB0F0BD38B591F85B
:1052A00020300D4604465BB100F108030360D1E9EC
:1052B00002124FF000030A44FCF75EFE204638BDA0
:1052C0000846FFF7BDFF60B104F108032360D5E98C
:1052D000021220460A444FF00003FCF74DFE204620
:1052E00038BD074825F0D8FC064A04F108032360BE
:1052F000204611464FF00003FBF7DCF9204638BD8D
:10530000844D03080C4F03082DE9F04F90F820302E
:1053100091B0064689469246002B00F0828002A892
:105320004946FCF719FD0AA83146FFF7B7FF5F4968
:105330000A9823F0FDF80A9B0DF130084345054615
:1053400002D01846FEF7DCFB06AF284622F09CFD93
:1053500004466946284684BBCDE904748DF818409C
:1053600022F012FF224604A92B463046FFF708FF21
:10537000044601A92846002C5DD022F005FF3268C2
:105380000AA8D2F81CB002AB04AA3146D847DDE91E
:105390000A0B404501D0FEF7B3FBBBF1000F50D123
:1053A0000498B842D1D0FEF7ABFB284622F06CFD42
:1053B000044669462846002CCED0284622F05CFDE3
:1053C00031460AA8FFF76AFF39490A9823F0B0F876
:1053D0000A9B4345044602D01846FEF791FB21463E
:1053E0000A2023F003F92146D9F8000023F08CF9B4
:1053F0002346092201212F4823F010FD2146DAF827
:10540000000023F081F92346112201212A4823F0CC
:1054100005FD204622F030FD0124204611B0BDE8F4
:10542000F08FFFF70DFF044600287FF478AF204689
:1054300011B0BDE8F08F0498B842BED0FEF760FB13
:10544000BBE7DDE90013DAF80400D9F804205B1AA1
:105450000330043B02449A4223D80022284623F01A
:105460000BFB2946D9F8000023F04EF929462020ED
:1054700023F0BCF82946DAF8000023F045F90F487C
:105480002B460222012123F0C9FC284622F0F4FC1D
:105490000498B842C1D0FEF733FB204611B0BDE8F6
:1054A000F08F284622F0E8FC0024F1E7A44D030821
:1054B000C0470308AC4D0308B84D0308A84D0308C6
:1054C0002DE9F04F90464A4A0D4600F108094FF089
:1054D00000038DB0C0F8009011460446FBF7EAF8CF
:1054E00095F82030002B73D006A82946FFF7D6FE8A
:1054F0004049069823F01CF8069B08AEB3420746C5
:1055000001D0184638E0384622F0BEFC024600289A
:105510003AD10DF1080A3B466946284601928DF8BA
:105520000820CDF800A0FFF72BFE00284AD02A68FB
:105530004346D2F81CB006A86A462946D847069BBF
:105540002068B34227D0814533D0DDE90712C4E992
:105550000031A368A260002830D006900893002391
:10556000079303700698B04201D0FEF7C9FA63684A
:1055700043BB00985045C6D0FEF7C2FA384622F029
:1055800083FC02460028C4D0384622F075FC204631
:105590000DB0BDE8F08F079A32B1012A21D0314613
:1055A00023F08EFD079A20686260002383540698DA
:1055B000D5E7079A2360089BC4E9012308A806964B
:1055C0000646CCE700985045DED0FEF799FADBE7B7
:1055D0002846FFF735FE002886D120460DB0BDE8ED
:1055E000F08F9DF820300370079A2068DCE700BF39
:1055F0000C4F0308088B03082DE9F04F05469BB0BC
:1056000088461046BC49924622F092FF0124064685
:10561000304622F039FCA146044638BB02A904AF4B
:1056200033464A46284603948DF810400297FFF708
:10563000A7FD09F10104002800F01D812B6802A9D3
:105640009B6942462846984720B1028C4AF6E613E9
:105650009A4211D00298B842DAD0FEF751FA304699
:1056600022F012FCA14604460028D7D0304622F092
:1056700003FC1BB0BDE8F08FD0F800900DF1280BB3
:10568000CDF820B0B9F1000F00F00581484626F0B2
:1056900057F809EB000249464FF0000308A8FBF752
:1056A00009F84046FBF7D4FADDE908124FF0000391
:1056B0000A4414A80DF15809CDF85090FCF75CFC91
:1056C00014A8FBF793FF149A4A45034604D00190AF
:1056D0001046FEF715FA019B002B40F09380089BC3
:1056E0001B782F2B40F0DA8010AB0E93BAF1000F2D
:1056F00000F04281504626F023F80AEB00024FF0FA
:1057000000030EA85146FAF7D5FF4FF0FF322F21C4
:105710000EA81FF0D4FEDDE90E124FF000039042F8
:1057200094BF0A188A1814A8CDF85090FAF7C2FF4F
:10573000149B0E984B4500F0118110AA904200F086
:10574000CF80DDE91512CDE90E31109B10920028B3
:1057500000F0CB80149016930023159303701498D7
:10576000484501D0FEF7CCF9DDE90E124FF00003F9
:105770000A4414A8CDF85090FCF7FEFBDDE90812AE
:1057800014A81FF049FE14A8FBF730FF149A4A45ED
:10579000034604D001901046FEF7B2F9019B002B9E
:1057A00000F0B280DDE90E124FF000030A4414A8A5
:1057B000CDF85090FCF7E0FBDDE9081214A81FF0CB
:1057C0002BFE149B08984B4500F0BA80584500F01A
:1057D000EC80DDE91512CDE908310A9B0A92002818
:1057E00000F0E8801490169300231593037014982A
:1057F000484501D0FEF784F90E9810AB984201D0CD
:10580000FEF77EF9DDE908124FF000030A4414A800
:10581000CDF85090FCF7B0FB14A8FBF7E7FE149A04
:105820004A45034604D001901046FEF769F9019BF2
:10583000089963B3314825F021F914A9304622F0C4
:10584000A3FC2D490898324623F008F9089A4146EE
:10585000284600F0E5F828493246504623F0FEF885
:1058600014A9304623F0AAF9089858453FF4F2AE3F
:10587000FEF746F9EEE60298B8423FF4F7AEFEF7BF
:105880003FF9304622F0F8FA1BB0BDE8F08F1C4813
:1058900025F0F4F8E8E74FF0FF32FCE614A81949C8
:1058A00008AAFFF7A3FC149B08984B4500F08880DA
:1058B000584500F09380DDE91512CDE908310A9BC7
:1058C0000A92002800F08F801490169300231593FD
:1058D0000370149848453FF407AFFEF711F903E74A
:1058E000159A0E93169BCDE90F23CDF850900DF12C
:1058F0005809484630E700BF088B0308D84D030815
:10590000F44D03089049030808AA434914A8FFF777
:105910006DFC14A8FBF76AFE149A4A45034604D0AE
:1059200001901046FEF7ECF8019B08AA3BB33A49F8
:1059300014A8FFF75BFC149B08984B457FF446AF17
:10594000159A32B1012A5AD0494623F0B9FB159A6B
:105950000898099200238354149845E7159A32B1A8
:10596000012A46D0494623F0ABFB159A0E980F92B8
:10597000002383541498EFE64FF0FF32BFE6274927
:1059800014A8FFF733FC14A8FBF730FE149A4A451D
:10599000034604D001901046FEF7B2F8019B002B9D
:1059A0003FF42AAF1D4908AAC2E7159A0893169B2F
:1059B000CDE90923CDF850900DF15809484613E779
:1059C000159A32B1012A20D0494623F079FB159A65
:1059D0000898099200238354149877E7159A08933E
:1059E000169BCDE90923CDF850900DF15809484692
:1059F0006CE79DF858300370159A0E98B7E79DF83C
:105A000058300370159A0898A3E79DF85830037032
:105A1000159A0898DDE700BFCC4D0308D04D030868
:105A20002DE9F04186B00DF1080806460F461446F0
:105A3000CDF80080E2B1104625F082FE22184FF02A
:105A4000000368462146FAF735FE6846FBF7CEFDAF
:105A5000009B4345054602D01846FEF751F825B194
:105A6000224639463046FFF7C7FD06B0BDE8F08153
:105A70004FF0FF32E3E700BF30B590F8203087B039
:105A800004460D4683B121466846FFF707FC2046D1
:105A9000009A2946FFF7C4FF009802AB984201D054
:105AA000FEF72EF807B030BDFFF7CAFB0028EAD199
:105AB00007B030BD8088401AB0FA80F040097047C6
:105AC00000207047704700BF10B50446FEF718F875
:105AD000204610BD10B5064B036004460846FBF790
